:020000040800F2
:100000004004002001010008090100080B0100085C
:100010000D0100080F010008110100080000000098
:1000200000000000000000000000000013010008B4
:100030001501000800000000170100081901000860
:100040001B0100081B0100081B0100081B01000820
:100050001B0100081B0100081B0100081B01000810
:100060001B0100081B0100081B0100081B01000800
:100070001B0100081B0100081B0100081B010008F0
:100080001B0100081B0100081B0100081B010008E0
:100090001B0100081B0100081B0100081B010008D0
:1000A0001B0100081B0100081B0100081B010008C0
:1000B0001B0100081B010008790900081B0100084A
:1000C0001B0100081B0100081B0100081B010008A0
:1000D0001B0100081B0100081B0100081B01000890
:1000E0001B0100081B0100081B010008DFF80CD0F1
:1000F00000F018F800480047B11000084004002044
:100100000648804706480047FEE7FEE7FEE7FEE7B1
:10011000FEE7FEE7FEE7FEE7FEE7FEE73D08000834
:10012000ED000008064C074D06E0E06840F00103D2
:1001300094E8070098471034AC42F6D3FFF7DAFF93
:1001400028120008481200082DE9F0410246002557
:100150000026002000230024002791F803C00CF0A3
:100160000F0591F803C00CF0100CBCF1000F03D088
:1001700091F802C04CEA050591F800C0BCF1000FEF
:1001800031D0146800202BE04FF0010C0CFA00F382
:10019000B1F800C00CEA03069E4220D183004FF064
:1001A0000F0C0CFA03F7BC4305FA03FC4CEA0404F9
:1001B00091F803C0BCF1280F06D14FF0010C0CFAE6
:1001C00000FCC2F814C00AE091F803C0BCF1480F6B
:1001D00005D14FF0010C0CFA00FCC2F810C0401C15
:1001E0000828D1D31460B1F800C0BCF1FF0F34DD92
:1001F000546800202EE000F1080C4FF0010808FAC6
:100200000CF3B1F800C00CEA03069E4221D1830032
:100210004FF00F0C0CFA03F7BC4305FA03FC4CEA51
:10022000040491F803C0BCF1280F05D100F1080CBB
:1002300008FA0CF8C2F8148091F803C0BCF1480F1A
:1002400007D100F1080C4FF0010808FA0CF8C2F8C9
:100250001080401C0828CED35460BDE8F081000017
:10026000F0B50A46002300240021002500F00046D6
:10027000B6F1004F02D11D4EF16901E01B4E7168CD
:10028000C0F3034583B200F44016B6F5401F08D111
:1002900021F07061154E766826F07066134F7E600F
:1002A00012E000F48016B6F5801F06D1032606FA88
:1002B00005F4A14341F0706106E0460D360103FAF2
:1002C00006F6B14341F0706122B1460D360103FAE2
:1002D00006F6314300F00046B6F1004F02D1034E5E
:1002E000F16101E0014E7160F0BD000000000140CD
:1002F0000246002093680B400BB1012000E0002073
:1003000070474161704701617047000008B50121E5
:10031000092000F01FF98020ADF8000048208DF87A
:10032000030069460B48FFF70FFF01210A48FFF75A
:1003300097FF0121052000F00DF94FF41060ADF892
:10034000000048208DF8030069460448FFF7FCFED2
:1003500008BD0000000C014000043000000801400E
:1003600010B5044614B101202749087026480078CA
:1003700098B380212548FFF7BBFF58B14FF4807137
:100380002348FFF7B5FF28B14FF400612048FFF77D
:10039000AFFF10BB0A2000F049FE00201A49087088
:1003A00080211A48FFF7A4FF18B9012019490870E5
:1003B00010BD4FF480711648FFF79AFF18B902205C
:1003C00014490870F4E74FF400611148FFF790FFFB
:1003D000C0B903200F490870EAE7FFE780210B4806
:1003E000FFF786FF01280DD101020948FFF780FFC2
:1003F000012807D1C1020648FFF77AFF012801D181
:10040000014908700020D3E73C000020000C0140A7
:10041000000801403800002008B50121082000F044
:1004200099F83820ADF8000010208DF80300032063
:100430008DF8020069460448FFF786FE382102481D
:10044000FFF761FF08BD0000000C014008B5012165
:10045000082000F07FF84FF44050ADF80000102065
:100460008DF8030003208DF8020069460F48FFF75E
:100470006BFE0121082000F06DF84FF44040ADF80C
:10048000000010208DF8030003208DF8020069465B
:100490000648FFF759FE4FF440510448FFF733FF79
:1004A0004FF440410148FFF72EFF08BD000C01400A
:1004B00070B5002100230F22C47804B3154C2468C2
:1004C00004F4E064C4F5E064210AC1F10403CA4005
:1004D000447804FA03F184781440214309010E4C56
:1004E0000678A155047804F01F050124AC40057876
:1004F0006D11AD0005F1E025C5F8004109E0047873
:1005000004F01F050124AC40044D0678761145F82F
:10051000264070BD0CED00E000E400E080E100E06A
:1005200002490143024A1160704700000000FA05C9
:100530000CED00E029B1064AD2690243044BDA61AE
:1005400004E0034AD2698243014BDA61704700003C
:100550000010024029B1064A92690243044B9A6195
:1005600004E0034A92698243014B9A61704700009C
:100570000010024010B501210420FFF7EBFF01211C
:100580000820FFF7E7FF01211020FFF7E3FF01211B
:100590000846FFF7DFFF01218803FFF7DBFF01219A
:1005A0000220FFF7C7FF10BD30B500210022002454
:1005B00000232D4D6D6805F00C0121B1042905D0F3
:1005C000082923D105E0294D056022E0274D05606B
:1005D0001FE0254D6D6805F47012234D6D6805F41C
:1005E0008034022505EB92421CB9214D554305602C
:1005F0000BE01D4D6D6805F400351DB11C4D5543D4
:10060000056002E0194D5543056002E0174D056095
:1006100000BF00BF144D6D6805F0F0010909154DCC
:100620006B5C0568DD4045600F4D6D6805F4E06169
:10063000090A104D6B5C4568DD4085600A4D6D68A8
:1006400005F46051C90A0B4D6B5C4568DD40C5601F
:10065000054D6D6805F44041890B074D6B5CC5681D
:10066000B5FBF3F5056130BD0010024000127A00C1
:1006700000093D00240000203400002070B504462D
:100680000D46002C0BDA4FF480512548FFF73BFE56
:100690004FF400512248FFF734FE644209E04FF462
:1006A00000511F48FFF72FFE4FF480511C48FFF701
:1006B00028FE002D0BDA4FF480411948FFF723FE86
:1006C0004FF400411648FFF71CFE6D4209E04FF45D
:1006D00000411348FFF717FE4FF480411048FFF721
:1006E00010FEB5F57A7F01DB40F2E735B4F57A7F8D
:1006F00001DB40F2E7340B48007840B100210A48A2
:1007000000F0DBFA0021084800F0D9FA07E0A9B2AE
:10071000054800F0D2FAA1B2034800F0D0FA70BD4B
:10072000000C0140090000200004004010B500F05A
:1007300001F810BD0CB5002001900090334800680E
:1007400040F480303149086000BF3048006800F450
:10075000003000900198401C0190009818B9019851
:10076000B0F5A06FF1D12948006800F4003010B155
:100770000120009001E0002000900098012843D162
:100780002348006840F010002149086008460068CE
:1007900020F0030008600846006840F0020008608E
:1007A0001A48406819494860084640684860084649
:1007B000406840F4806048600846406820F47C103F
:1007C00048600846406840F4E81048600846006801
:1007D00040F08070086000BF0C48006800F00070B6
:1007E0000028F9D00948406820F003000749486014
:1007F0000846406840F00200486000BF0348406877
:1008000000F00C000828F9D10CBD000000100240D7
:1008100000200240042808D14FF0E021096941F08E
:1008200004014FF0E022116107E04FF0E021096977
:1008300021F004014FF0E0221161704710B5134818
:10084000006840F0010011490860084640681049FE
:1008500008400E494860084600680E4908400B49A8
:1008600008600846006820F4802008600846406858
:1008700020F4FE0048604FF41F008860FFF756FF29
:100880004FF000600449086010BD000000100240F5
:100890000000FFF8FFFFF6FE08ED00E008B5C020FD
:1008A000ADF8000018208DF8030003208DF8020039
:1008B00069460248FFF748FC08BD000000080140F7
:1008C000F0B587B0002700240025002640F2E7306D
:1008D000ADF814000320ADF810000020ADF81600AC
:1008E000ADF8120004A91F4800F0ECF96020ADF843
:1008F00000000120ADF80200ADF806700020ADF850
:1009000008006946174800F07DF80821154800F0F6
:10091000C5F8ADF806406946124800F0C9F808214C
:10092000104800F017F9ADF8065069460D4800F080
:100930001FF908210B4800F06BF9ADF80660694615
:10094000084800F06FF90821064800F0A9F90121D4
:10095000044800F02BF80121024800F036F807B0F7
:10096000F0BD00000004004010B5FFF76FFDFFF779
:1009700095FFFFF7A5FF10BD10B50121094800F054
:1009800030F870B10121074800F01CF806480068F3
:10099000401C0549086008460068032801D900206A
:1009A000086010BD000800400C00002021B1028842
:1009B00042F08002028004E002884FF67F731A4002
:1009C00002807047CA430282704721B1028842F018
:1009D0000102028004E002884FF6FE731A40028092
:1009E000704730B50246002000230024158A05EA2E
:1009F0000103958905EA010413B10CB1012000E05F
:100A0000002030BD70B5002400220023058C4FF675
:100A1000FE7635400584028C8388048B4FF68F75F3
:100A20002C40B51E2C400D882C43751E2A400D8984
:100A30002A434D882A43144DA8420BD0134DA84297
:100A400008D0134DA84205D0124DA84202D0124D35
:100A5000A84213D14FF6F7752A404D892A434FF625
:100A6000FB752A408D882A434FF6FF652B404FF6D1
:100A7000FF552B408D892B43CD892B4383800483E5
:100A8000CD888586028470BD002C01400034014071
:100A90000040014000440140004801400A46002156
:100AA000018B4FF6F7731940114301837047000023
:100AB00070B5002400220023058C4FF6EF763540F8
:100AC0000584028C8388048B48F6FF752C404FF612
:100AD000FF452C400D884FF6FF7606EA05252C438E
:100AE0004FF6DF752A400D8906EA05152A434D8821
:100AF00006EA05152A43154DA84202D0144DA84216
:100B00001DD14FF67F752A404D894FF6FF7606EAD4
:100B100005152A434FF6BF752A408D8806EA05154C
:100B20002A434FF6FF352B404FF2FF752B408D893E
:100B300006EA85052B43CD8906EA85052B4383808C
:100B40000483CD880587028470BD0000002C01401D
:100B5000003401400A460021018B4FF2FF73194017
:100B60004FF6FF7303EA0223194301837047000025
:100B700070B5002400220023058C4FF6FF66354037
:100B80000584028C8388848B4FF68F752C404FF63A
:100B9000FC752C400D882C434FF6FF552A400D89DB
:100BA0004FF6FF7606EA05252A434D8806EA052515
:100BB0002A43154DA84202D0144DA8421DD14FF230
:100BC000FF752A404D894FF6FF7606EA05252A4330
:100BD0004FF6FF352A408D8806EA05252A434EF652
:100BE000FF752B404DF6FF752B408D8906EA0515E4
:100BF0002B43CD8906EA05152B4383808483CD885A
:100C00008587028470BD0000002C01400034014043
:100C10000A460021818B4FF6F773194011438183F7
:100C20007047000070B5002200230024058C4EF6AA
:100C3000FF7635400584038C8488828B48F6FF75E7
:100C40002A404FF6FF452A400D884FF6FF7606EA08
:100C500005252A434DF6FF752B400D8906EA05351B
:100C60002B434D8806EA05352B430B4DA84202D095
:100C70000A4DA84208D14BF6FF752C408D894FF6DE
:100C8000FF7606EA85152C4384808283CD88A0F800
:100C90004050038470BD0000002C0140003401402E
:100CA0000A460021818B4FF2FF7319404FF6FF7304
:100CB00003EA0223194381837047818670470187C5
:100CC00070470000002202881D4B98420ED01D4B39
:100CD00098420BD0B0F1804F08D01B4B984205D002
:100CE0001A4B984202D01A4B984204D14FF68F7398
:100CF0001A404B881A43174B984207D0164B98421C
:100D000004D04FF6FF431A40CB881A4302808B88E9
:100D100083850B8803850A4B98420BD0094B984278
:100D200008D00E4B984205D00D4B984202D00D4B87
:100D3000984201D10B7A0386012383827047000019
:100D4000002C014000340140000400400008004035
:100D5000000C004000100040001400400040014022
:100D6000004401400048014000B585B0012144F233
:100D70000400FFF7EFFB4FF40070ADF810001820EF
:100D80008DF8130003208DF8120004A91348FFF713
:100D9000DBF94FF48060ADF8100004208DF81300EB
:100DA00004A90E48FFF7D0F94FF416500090002028
:100DB000ADF80400ADF80600ADF80800ADF80C0081
:100DC0000C20ADF80A006946054800F09FF80121A3
:100DD000034800F069F805B000BD000000080140BC
:100DE0000038014010B586B0044601218804FFF7A1
:100DF000A1FB01210820FFF7ADFB4FF48060ADF8A7
:100E0000140018208DF8170003208DF8160005A98E
:100E10002348FFF799F94FF40060ADF8140004205F
:100E20008DF8170005A91E48FFF78EF91CB94FF47D
:100E30001650019004E0012C02D14FF4E1300190F2
:100E40000020ADF80800ADF80A00ADF80C00ADF8D0
:100E500010000C20ADF80E0001A9124800F056F861
:100E6000012240F225510F4800F02AF801210D48D7
:100E700000F01AF84FF4A060FFF752FB27208DF81E
:100E8000000000208DF8010004208DF802000120F0
:100E90008DF803006846FFF70BFB06B010BD00009D
:100EA000000C01400048004021B1828942F4005208
:100EB000828104E082894DF6FF731A408281704777
:100EC000F0B50346002400260025002040F66A17EE
:100ED000B94200D100BF1846C1F3421401F01F0609
:100EE000012707FA06F5012C01D10C3004E0022C91
:100EF00001D1103000E014301AB107682F430760A9
:100F000002E00768AF430760F0BD00002DE9F0473D
:100F100086B005460E460024A24600BFA146002723
:100F2000B08900B100BF2F462C8A4CF6FF700440F8
:100F3000F08804432C82AC894EF6F3100440B0884C
:100F400031890843718908430443AC81AC8A4FF668
:100F5000FF400440B0890443AC8201A8FFF724FBA2
:100F60001F48874202D1DDF810A001E0DDF80CA097
:100F7000A88900F4004040B10AEBCA0000EB0A1057
:100F800031684900B0FBF1F807E00AEBCA0000EB5A
:100F90000A1031688900B0FBF1F86420B8FBF0F06A
:100FA00004012009642101FB1089A88900F4004094
:100FB00040B1322000EBC900B0FBF1F000F00700B7
:100FC000044308E0322000EB09106421B0FBF1F08B
:100FD00000F00F0004432C8106B0BDE8F08700004C
:100FE0000038014002E008C8121F08C1002AFAD1E7
:100FF00070477047002001E001C1121F002AFBD199
:101000007047000010B56FF00400FFF703FC0448C0
:1010100000680449B0FBF1F00349087010BD0000FE
:101020001000002000127A000800002006E04FF4B3
:10103000FA5100BF0A1EA1F10101FBD1021EA0F16D
:10104000010398B2F3D1704710B50020FFF788F97B
:1010500014480078012805D1FF20124908700120AA
:10106000114908700F480078022805D1FF200D496A
:10107000087000200C4908700A48007803280FD136
:10108000FF200849087009480078401C40B2074911
:101090000870084690F90000032801DD012008705F
:1010A00010BD000038000020390000203B00002067
:1010B0004FF4A060FFF734FAFFF75CFAFFF7BEFBCE
:1010C000FFF752FE0020FFF78DFEFFF71FF9FFF735
:1010D0004BFCFFF7A1F901204C490860091F08608B
:1010E000091F0860FFF78EFF8EE0FFF7ADFF48484D
:1010F000007878B900210846FFF7C0FA002045497A
:101100000870012041490860091F0860091F086034
:10111000414908703E480078012875D100203B49BC
:101120000839086010213D48FFF7E2F801280AD18C
:1011300002213A48FFF7DCF8012804D100210846D3
:10114000FFF79CFA30E010213448FFF7D1F850B98E
:1011500002213248FFF7CCF828B9314801880088CD
:10116000FFF78CFA20E010212C48FFF7C1F8012886
:101170000AD102212948FFF7BBF828B900212848E5
:101180000088FFF77BFA0FE010212448FFF7B0F842
:1011900050B902212148FFF7ABF8012804D12048BB
:1011A00001880020FFF76AFA1B48007801280BD15C
:1011B0001649091F086000201A49C1F8940140F23D
:1011C000EE20174908801FE01348007802280CD150
:1011D00000200E49091F086001201249C1F894013E
:1011E0004FF443700E4908800EE00B480078032846
:1011F0000AD100200549091F08600A49C1F8940175
:101200004FF44D70064908806FE700009481214239
:10121000390000203A0000203B0000200008014077
:101220000000002000802142481200080000002039
:1012300040000000E40F0008881200084000002071
:1012400000040000F40F000800000000000000008F
:10125000000000000000000000A24A04000000009E
:101260000000000001020304060708090000000056
:101270000102030401020304060708090204060828
:08128000000000000100000065
:04000005080000ED02
:00000001FF
